:100000000C943B010C946C010C946C010C946C01ED
:100010000C946C010C946C010C946C010C946C01AC
:100020000C946C010C946C010C946C010C946C019C
:100030000C946C010C946C010C946C010C946C018C
:100040000C946C010C946C010C946C010C946C017C
:100050000C946C010C946C010C946C010C94FF04D6
:100060000C946C010C9473050C9449050C946C0170
:100070000C946C010C946C010C946C010C946C014C
:100080000C946C010C946C010C946C010C946C013C
:100090000C946C010C946C010C946C010C946C012C
:1000A0000C946C010C946C010C946C010C946C011C
:1000B0000C946C010C946C010C946C010C946C010C
:1000C0000C946C010C946C010C946C010C946C01FC
:1000D0000C946C010C946C010C946C010C946C01EC
:1000E0000C946C010C94CD010C94AE030C94290378
:1000F0000C941B030C94AB010C94B5010C9492016D
:100100000C94A1010C94B1010C94CC010C94CB0281
:100110000C94B9010C949E010C94C7010C948C01B1
:100120000C9461030C94C3010C94D1010C949601BE
:100130000C94BF010C94A7010C94A9050C9407031F
:100140000C949A010C94F8020001020304050A0BB6
:100150000C0D0E0F00002100240027002A002D00A6
:100160003000330001010000040107010A01000012
:100170002200250028002B002E003100340002014F
:100180000000050108010B010000200023002600EB
:1001900029002C002F00320000010000030106019D
:1001A00009010505050507050808080802020202FD
:1001B0000A0A080804040404010101010101010103
:1001C0000303030303030303040707070C0C0C0CCE
:1001D0000C0C0C0C020202020606060606060606B7
:1001E0000B0B0B0B0B0B0B0B010210202008081044
:1001F0002040102040800201020108040201010297
:10020000040810204080804020100804020180046F
:1002100002018040201008040201080402010102CA
:1002200004081020408001020408102040800000D3
:100230000A0B02090C0D0E08070304010000000060
:1002400000000000000000000000000000000000AE
:10025000000000000000000000001211100000006B
:10026000000000000000000000000000000000008E
:1002700000000000A90511241FBECFEFD1E2DEBFB0
:10028000CDBF00E00CBF22E0A8E1B2E001C01D92AA
:10029000AE3DB207E1F712E0A0E0B2E0E0E0F1E14C
:1002A00000E00BBF02C007900D92A831B107D9F74B
:1002B00011E0CBE3D1E000E006C021970109802FD7
:1002C000FE010E947608CA33D10780E00807A9F72B
:1002D0000E94F9050C947E080C9400008150823134
:1002E00008F05AC0E82FF0E08827E658FE4F8F4FFD
:1002F0000C9476089A019E018C0192019601CC0122
:10030000A101A701AB01B101B501B901BF01C30151
:10031000CC01C701CD01D101809180008F778093FE
:1003200080000895809180008F7DF9CF80918000BA
:10033000877FF5CF84B58F7784BD089584B58F7D91
:10034000FBCF8091B0008F778093B00008958091AB
:10035000B0008F7DF9CF809190008F7780939000CF
:100360000895809190008F7DF9CF80919000877FD4
:10037000F5CF8091A0008F778093A00008958091A1
:10038000A0008F7DF9CF8091A000877FF5CF80916D
:1003900020018F77809320010895809120018F7D27
:1003A000F9CF80912001877FF5CFCF93DF93282F5E
:1003B00030E0F901E25DFD4F8491F901E851FE4F13
:1003C000D491F901EE55FE4FC491CC23A1F08111D7
:1003D0000E946E01EC2FF0E0EE0FFF1FE857FE4F7A
:1003E000A591B491EC91ED2381E090E009F480E0D7
:1003F000DF91CF91089580E090E0FACF1F93CF93E3
:10040000DF93282F30E0F901E25DFD4F8491F9017F
:10041000E851FE4FD491F901EE55FE4FC491CC2323
:10042000A9F0162F81110E946E01EC2FF0E0EE0F63
:10043000FF1FE259FE4FA591B4918FB7F894EC914C
:10044000111108C0D095DE23DC938FBFDF91CF91CF
:100450001F910895DE2BF8CF682F8091C3020E9470
:10046000FE018091DA029091DB028230910538F032
:10047000880F991F880F991F05970197F1F7089525
:1004800081E00C942C02CF93DF9390E0FC01E851C3
:10049000FE4F24918E559E4FFC0184918823D1F00C
:1004A00090E0880F991FFC01EC5AFE4FA591B49182
:1004B000FC01E259FE4FC591D491623071F49FB7AF
:1004C000F8943C91822F809583238C93E8812E2B86
:1004D00028839FBFDF91CF9108958FB7F894EC9157
:1004E0002E2B2C938FBFF6CF3FB7F89480911A0232
:1004F00090911B02A0911C02B0911D0226B5A89BF1
:1005000005C02F3F19F00196A11DB11D3FBFBA2FA5
:10051000A92F982F8827BC01CD01620F711D811D65
:10052000911D42E0660F771F881F991F4A95D1F7EA
:1005300008958F929F92AF92BF92CF92DF92EF92E7
:10054000FF924B015C010E9474026B017C010E94CE
:1005500074026C197D098E099F09683E73408105FC
:100560009105A8F321E0821A9108A108B10888EE4C
:10057000C80E83E0D81EE11CF11C81149104A10473
:10058000B10429F7FF90EF90DF90CF90BF90AF902C
:100590009F908F900895AF92BF92CF92DF92EF928B
:1005A000FF920F931F93CF93DF936C017B018B011D
:1005B000040F151FEB015E01AE18BF08C017D1076D
:1005C00059F06991D601ED91FC910190F081E02DF7
:1005D000C6011995892B79F7C501DF91CF911F913C
:1005E0000F91FF90EF90DF90CF90BF90AF90089564
:1005F000FC01538D448D252F30E0842F90E0821B29
:10060000930B541710F0CF96089501970895FC01AD
:10061000918D828D981761F0A28DAE0FBF2FB11D05
:100620005D968C91928D9F5F9F73928F90E008955D
:100630008FEF9FEF0895FC01918D828D981731F017
:10064000828DE80FF11D858D90E008958FEF9FEF6B
:100650000895FC01918D228D892F90E0805C9F4F41
:10066000821B91098F739927089582E292E00E947C
:10067000290321E0892B09F420E0822F0895FC0151
:10068000A48DA80FB92FB11DA35ABF4F2C91848DF3
:1006900090E001968F739927848FA689B7892C9350
:1006A000A089B1898C91837080648C93938D848DA3
:1006B000981306C00288F389E02D80818F7D8083A6
:1006C0000895EF92FF920F931F93CF93DF93EC0166
:1006D00081E0888F9B8D8C8D98131AC0E889F989E9
:1006E000808185FF15C09FB7F894EE89FF896083EC
:1006F000E889F98980818370806480839FBF81E06D
:1007000090E0DF91CF911F910F91FF90EF900895AE
:10071000F62E0B8D10E00F5F1F4F0F731127E02E89
:100720008C8D8E110CC00FB607FCFACFE889F989C1
:10073000808185FFF5CFCE010E943F03F1CFEB8D85
:10074000EC0FFD2FF11DE35AFF4FF0829FB7F89495
:100750000B8FEA89FB8980818062CFCFCF93DF93B3
:10076000EC01888D8823B9F0AA89BB89E889F989C9
:100770008C9185FD03C0808186FD0DC00FB607FCFE
:10078000F7CF8C9185FFF2CF808185FFEDCFCE0131
:100790000E943F03E9CFDF91CF91089580E090E080
:1007A000892B29F00E94350381110E94000080E00E
:1007B00090E0892B49F080E090E0892B29F00E949D
:1007C000000081110E94000080E090E0892B49F038
:1007D00080E090E0892B29F00E94000081110E94A6
:1007E000000080E090E0892B49F080E090E0892BC8
:1007F00029F00E94000081110C94000008958EBD24
:1008000000000DB407FEFDCF8EB508950F931F9322
:100810000091C4021091C5022091C6023091C70216
:1008200040E052E16AE770E080E004171507260710
:10083000370740F476956795579547958F5F8630D3
:10084000A1F787E0982F906A9695809581709CBD5E
:100850008DBD80E01F910F910C942C02CF93C82F77
:100860000E9406048C2F80620E94FF038093C802BE
:10087000CF910C944002CF93C82F0E9406048C2F76
:100880000E94FF038093C8028FEF0E94FF03C82FCE
:100890000E9440028C2FCF9108950F931F93CF9306
:1008A000182FC62F0E940604812F80620E94FF032A
:1008B0008093C80200E012E0C15030F0F80181914D
:1008C0008F010E94FF03F8CFCF911F910F910C94DD
:1008D00040020E94060480E50E94FF038093C80244
:1008E00083E70E94FF030C944002CF93DF93D82F3D
:1008F000C62F0E9406048D2F80620E94FF03809302
:10090000C8028C2F0E94FF03DF91CF910C9440020C
:10091000CF92DF92EF92FF92CF93DF937C01809191
:10092000D402C0E0D1E0811106C0C091C902DC2F21
:10093000C111D1E0CD1B0E94060480EA0E94FF0392
:100940008093C802DD2321F0F70180810E94FF031C
:10095000C15080E0CF3FD1F70E9440028091C20297
:100960009091C302891719F061E00E94FE018FB7D0
:10097000F894C0901E02D0901F02E0902002F090E8
:1009800021028FBF8FEF0E942E048091C8028073D6
:10099000F9F42FB7F89480911E0290911F02A09154
:1009A0002002B09121022FBF8C199D09AE09BF0909
:1009B00080369105A105B10528F381E08093D50229
:1009C00080E0DF91CF91FF90EF90DF90CF9008957E
:1009D0008091C2029091C302891719F060E00E94D1
:1009E000FE0160E787E00E9475048091C80284FFE1
:1009F00004C081EE0E942E04E3CF81E0E2CF1F927B
:100A00000F920FB60F9211242F933F938F939F93C2
:100A1000AF93BF9380911E0290911F02A09120027C
:100A2000B09121023091190223E0230F2D3758F5A0
:100A30000196A11DB11D2093190280931E0290936F
:100A40001F02A0932002B093210280911A0290917C
:100A50001B02A0911C02B0911D020196A11DB11DA7
:100A600080931A0290931B02A0931C02B0931D0264
:100A7000BF91AF919F918F913F912F910F900FBE9A
:100A80000F901F90189526E8230F0296A11DB11D07
:100A9000D2CF1F920F920FB60F9211240BB60F9266
:100AA0002F933F934F935F936F937F938F939F9376
:100AB000AF93BF93EF93FF9382E292E00E943F03D4
:100AC000FF91EF91BF91AF919F918F917F916F9126
:100AD0005F914F913F912F910F900BBE0F900FBEE2
:100AE0000F901F9018951F920F920FB60F9211241E
:100AF0000BB60F922F938F939F93EF93FF93E091F9
:100B00003202F09133028081E0913802F091390293
:100B100082FD1DC0908180913B028F5F8F73209179
:100B20003C02821741F0E0913B02F0E0EE5DFD4FA8
:100B3000958F80933B02FF91EF919F918F912F9121
:100B40000F900BBE0F900FBE0F901F9018958081D5
:100B5000F2CFE2E2F2E01382128288EE93E0A0E0AC
:100B6000B0E084839583A683B7838AE092E0918383
:100B7000808385EC90E09587848784EC90E097876C
:100B8000868780EC90E0918B808B81EC90E0938B5A
:100B9000828B82EC90E0958B848B86EC90E0978B37
:100BA000868B118E128E138E148EE0ECF2E089E0AB
:100BB00082838AE0838380E896E9A8E9B0E08483B1
:100BC0009583A683B78380E28187108A118A85E0A6
:100BD000838B81E0848B85E090E0A0E0B0E0828FA1
:100BE000938FA48FB58F8FEB92E0918380831286D1
:100BF0000895CF93DF931F92CDB7DEB7789484B575
:100C0000826084BD84B5816084BD85B5826085BD08
:100C100085B5816085BD80916E00816080936E0096
:100C20001092810080918100826080938100809188
:100C30008100816080938100809180008160809339
:100C400080008091B10084608093B1008091B000F9
:100C500081608093B00080919100826080939100C8
:100C600080919100816080939100809190008160DB
:100C7000809390008091A10082608093A100809178
:100C8000A10081608093A1008091A0008160809389
:100C9000A000809121018260809321018091210137
:100CA00081608093210180912001816080932001E7
:100CB00080917A00846080937A0080917A008260CB
:100CC00080937A0080917A00816080937A0080918D
:100CD0007A00806880937A001092C1001FB7F89460
:100CE00080911802811127C0E7EDF1E08491EDE1D8
:100CF000F2E09491E82FF0E0EE0FFF1FEC5AFE4F68
:100D0000A591B491EC91E92321F461E085E30E947F
:100D1000FE0161E085E30E9443028CB580618CBDD9
:100D20008CB580648CBD61E084E30E94430261E085
:100D300083E30E944302809118028F5F8093180220
:100D40001FBF8091C2028F3F09F49AC09091C302E5
:100D50009F3F09F495C0891741F061E00E9443026A
:100D600061E08091C3020E9443028091C20290918F
:100D7000C302891719F060E00E94FE0181E00E9421
:100D80002C0265E070E080E090E00E9499026FE53F
:100D900084E00E94750486E00E943B0445E550E033
:100DA00060E070E04093D6025093D7026093D8027F
:100DB0007093D902682F677D86E00E94750486E0F3
:100DC0000E943B048DE10E943B04182F0E9469049D
:100DD0008DE10E943B0491E0181390E09093D002C3
:100DE000882341F0181302C00E94690460E08DE17D
:100DF0000E9475041092D20260E08CE10E9475049A
:100E00001092D4026FE381E00E94750463E082E0F7
:100E10000E94750480E28093C90211E16091C902C9
:100E2000812F0E9475041F5F1731C1F763E083E0D3
:100E30000E94750485E08093D3026CE40E947504DF
:100E400060E787E00E94750482EE0E942E0481EE26
:100E50000E942E046CE080E00E94750480E00E94F5
:100E60003B048093CF0281FD0BC0682F62606093CA
:100E7000CF0280E00E9475048BE19EE40197F1F7B8
:100E80006091D3028AE00E944D046091D30280E118
:100E90000E944D04EFE4F1E084916091D3020E943E
:100EA0004D0482E00E943B04E9E4F1E0E49161E05A
:100EB00070E001C0660FEA95EAF7682B82E00E94B5
:100EC000750486E00E943B04887F682F636086E09B
:100ED0000E94750462E086E00E94430262E087E0BF
:100EE0000E94430262E084E00E94430262E085E0E7
:100EF0000E94430262E080E00E94430262E081E0DF
:100F00000E94430262E088E00E94430261E089E3BC
:100F10000E944302E0913202F091330282E080832A
:100F2000E0912E02F0912F021082E0913002F091B8
:100F300031028FEC808310923A02E0913602F091F8
:100F4000370286E08083E0913402F091350280819F
:100F500080618083E0913402F09135028081886065
:100F60008083E0913402F091350280818068808333
:100F7000E0913402F091350280818F7D808383E59A
:100F8000582E92E4492E26E4322E39E5232E86E0AF
:100F90000E94D5014C0187E00E94D5015C0184E0EC
:100FA0000E94D5016C0185E00E94D5013C0180E0E2
:100FB0000E94D5017C0181E00E94D5018C0188E06E
:100FC0000E94D50121E030E08114910411F030E05D
:100FD00020E041E050E0A114B10411F050E040E005
:100FE000240F351F41E050E0C114D10411F050E04E
:100FF00040E0240F351F41E050E06114710411F00E
:1010000050E040E0240F351F41E050E0E114F104CE
:1010100011F050E040E0240F351F41E050E0011591
:10102000110511F050E040E0240F351F41E050E081
:10103000009711F050E040E0240F351FE114F10457
:1010400089F40115110571F4298261E088E30E9499
:10105000430261E088E30E94FE01CE0101960E94F6
:10106000880416C022303105B4F0598261E088E36B
:101070000E94430260E088E30E94FE01CE010196D7
:101080000E94880464E670E080E090E00E9499028B
:101090000E94CE037CCF892811F43982D6CFAB28A9
:1010A00011F44982D2CFCD2819F48CE48983CDCFB5
:1010B000672811F482E5FACFEF2811F481E4F6CF26
:1010C000012B11F484E4F2CF892B49F487E589835D
:1010D00064EF71E080E090E00E949902B6CF5982FF
:1010E00061E088E30E94430260E0B4CFEE0FFF1F8F
:1010F000881F8BBF0790F691E02D1994F894FFCFCD
:10110000303030303100000000006103CB02F802C3
:08111000AE03290307031B03D2
:00000001FF
