:100000000C944F010C9480010C9480010C9480019D
:100010000C9480010C9480010C9480010C9480015C
:100020000C9480010C9480010C9480010C9480014C
:100030000C9480010C9480010C9480010C9480013C
:100040000C9480010C941A060C9480010C9480018D
:100050000C9480010C9480010C9480010C94460552
:100060000C9480010C9480010C9480010C9480010C
:100070000C9480010C9480010C9480010C948001FC
:100080000C94EC050C9480010C9480010C9480017C
:100090000C9480010C9480010C9480010C948001DC
:1000A0000C9480010C9480010C94BE050C9480018A
:1000B0000C9480010C9480010C9480010C949005A8
:1000C0000C9480010C9480010C9480010C948001AC
:1000D0000C9480010C9480010C9480010C9480019C
:1000E0000C9480010C9403030C9461020C941C0387
:1000F0000C946D030C941C020C9453020C942A0271
:100100000C9412030C9454030C9463030C9441025A
:100110000C945D020C9445020C948B030C944902E0
:100120000C9437020C942E030C9481030C944F0210
:100130000C943B020C9422020C944A030C9431025E
:100140000C9495030C9436030C94FE020C94260236
:100150000C942E020C9457020C945C020C9426030F
:100160000C9440030C9477030C94470A0C940803F6
:100170000A0B0C0D0E0F0001020304050000200005
:100180002300260029002C002F003200000100006F
:1001900003010601090100002100240027002A00B4
:1001A0002D003000330001010000040107010A01A5
:1001B00000002200250028002B002E003100340012
:1001C00002010000050108010B01050505050705F1
:1001D00008080808020202020A0A080804040404C3
:1001E00001010101010101010303030303030303EF
:1001F000040707070C0C0C0C0C0C0C0C020202027E
:1002000006060606060606060B0B0B0B0B0B0B0B66
:100210000102102020080810204010204080020118
:1002200002010804020101020408102040808040FD
:1002300020100804020180040201804020100804FC
:10024000020108040201010204081020408001029A
:1002500004081020408000000A0B02090C0D0E0853
:10026000070304010000000000000000000000007F
:10027000000000000000000000000000000000007E
:10028000000012111000000000000000000000003B
:10029000000000000000000000000000470A1124D8
:1002A0001FBECFEFD1E2DEBFCDBF00E00CBF12E03A
:1002B000A0E0B2E0EEE1F6E100E00BBF02C0079083
:1002C0000D92AA30B107D9F722E0AAE0B2E001C04E
:1002D0001D92A33DB207E1F711E0CFE4D1E000E0C9
:1002E00006C021970109802FFE010E94050BCE3424
:1002F000D10780E00807A9F70E9448060C940D0B6F
:100300000C940000CF92DF92EF92FF92DC01A032BA
:1003100082E0B807D4F5A53BB10514F0A4EBB0E03A
:100320004091D10228E830E0241B310947FD339584
:10033000220F331F220F331F6901330FEE08FF080E
:100340004091D20228E532E0241B310947FD339564
:10035000220F331F220F331F032E000C440B550BAB
:100360002C193D094E095F09B7FF02C0B0E0A0E0BB
:100370000E94C00A24EB30E040E050E00E94960A60
:10038000C20ED31EE41EF51ED601E091D002E0336A
:1003900080F52091D10288E890E0821B910927FD29
:1003A0009395880F991F880F991FA817B90784F094
:1003B0002091D20288E592E0821B910927FD939556
:1003C000880F991F880F991FA817B9070CF4CD0142
:1003D0000297880F991F4FB7F8942E2F30E0F9013C
:1003E000EE0FFF1FE20FF31FE05CFD4F928381834E
:1003F0004FBFFF90EF90DF90CF90089581508231F2
:1004000008F05AC0E82FF0E08827E65FFD4F8F4FD5
:100410000C94050B2A022E021C02220226025C0208
:10042000310237023B024102450249024F025302A8
:100430005C0257025D026102809180008F77809399
:1004400080000895809180008F7DF9CF8091800099
:10045000877FF5CF84B58F7784BD089584B58F7D70
:10046000FBCF8091B0008F778093B000089580918A
:10047000B0008F7DF9CF809190008F7780939000AE
:100480000895809190008F7DF9CF80919000877FB3
:10049000F5CF8091A0008F778093A0000895809180
:1004A000A0008F7DF9CF8091A000877FF5CF80914C
:1004B00020018F77809320010895809120018F7D06
:1004C000F9CF80912001877FF5CF1F93CF93DF93E2
:1004D000282F30E0F901EA5AFD4F8491F901E05FDD
:1004E000FD4FD491F901E653FE4FC491CC23A9F0FE
:1004F000162F81110E94FE01EC2FF0E0EE0FFF1F7E
:10050000E055FE4FA591B4918FB7F894EC9111117D
:1005100008C0D095DE23DC938FBFDF91CF911F9170
:100520000895DE2BF8CF682F809125020E94650286
:1005300080913C0290913D028230910538F0880F05
:10054000991F880F991F05970197F1F7089581E08A
:100550000C949302CF93DF9390E0FC01E05FFD4F9A
:10056000249186539E4FFC0184918823D1F090E022
:10057000880F991FFC01EA56FE4FA591B491FC012A
:10058000E055FE4FC591D49161110EC09FB7F8940C
:100590008C91E22FE0958E238C932881E223E883CF
:1005A0009FBFDF91CF9108958FB7F894EC91E22B24
:1005B000EC938FBFF6CF982FE82FF0E0EA5AFD4F6B
:1005C000E491E150E23108F0B0C0F0E08827E45156
:1005D000FD4F8F4F0C94050BFE020303080312031B
:1005E0001C03950326032E03360340034A035403DA
:1005F00063036D039503770381038B0384B58068E0
:1006000084BD67BD089584B5806284BD68BD0895CA
:10061000809180008068809380007093890060934F
:10062000880008958091800080628093800070939C
:100630008B0060938A000895809180008860809389
:10064000800070938D0060938C0008958091B000BD
:1006500080688093B0006093B30008958091B000EB
:1006600080628093B0006093B40008958091900000
:10067000806880939000709399006093980008952B
:100680008091900080628093900070939B006093B3
:100690009A000895809190008860809390007093F4
:1006A0009D0060939C0008958091A00080688093D5
:1006B000A0008091A0008F7B8093A0007093A90080
:1006C0006093A80008958091A00080628093A000AC
:1006D0007093AB006093AA0008958091A000886099
:1006E0008093A0007093AD006093AC00089580915A
:1006F0002001806880932001709329016093280174
:1007000008958091200180628093200170932B01D5
:1007100060932A01089580912001886080932001D0
:1007200070932D0160932C01089561E0892F0C9442
:1007300065023FB7F89480911E0290911F02A0912C
:100740002002B091210226B5A89B05C02F3F19F0C9
:100750000196A11DB11D3FBFBA2FA92F982F882741
:10076000BC01CD01620F711D811D911D42E0660F1C
:10077000771F881F991F4A95D1F708958F929F92EE
:10078000AF92BF92CF92DF92EF92FF924B015C014A
:100790000E9499036B017C010E9499036C197D09E9
:1007A0008E099F09683E734081059105A8F321E0F9
:1007B000821A9108A108B10888EEC80E83E0D81EFD
:1007C000E11CF11C81149104A104B10429F7FF90EC
:1007D000EF90DF90CF90BF90AF909F908F90089553
:1007E000AF92BF92CF92DF92EF92FF920F931F933F
:1007F000CF93DF936B017A01EC01C45FDD4F288159
:100800003CE0389F8001399F100D1124A0900B020D
:10081000B12C27FF1FC0FB011182108288818F5FDE
:10082000888388819801280F311D87FD3A95F6014C
:100830002A153B051CF488818C30C4F1808191819C
:10084000049680349C4908F473C0F601808191813C
:10085000049670C088819801280F311D87FD3A9554
:100860002A153B05DCF68881A801480F511D87FD3C
:100870005A95FA01EE0FFF1FE40FF51FE05CFD4FE4
:10088000808186FFCBCF8881F801E80FF11D87FDBD
:10089000FA95CF01EE0FFF1FE80FF91FE05CFD4F47
:1008A000808160E08F730E946502B8CF8081918162
:1008B0002881A801420F511D27FD5A959A01FA017E
:1008C000EE0FFF1FE20FF31FE05CFD4F218132812D
:1008D000820F931FF7019183808388819801280FED
:1008E000311D87FD3A95F901EE0FFF1FE20FF31F4F
:1008F000E05CFD4F808186FF22C08881080F111DBA
:1009000087FD1A95F801EE0FFF1FE00FF11FE05C65
:10091000FD4F808161E08F73DF91CF911F910F9127
:10092000FF90EF90DF90CF90BF90AF900C94650256
:1009300080E49CE9F701918380838FEF8883DF91C6
:10094000CF911F910F91FF90EF90DF90CF90BF90CC
:10095000AF9008958EBD00000DB407FEFDCF8EB59B
:1009600008950F931F930091260210912702209162
:1009700028023091290240E052E16AE770E080E00D
:10098000041715072607370740F47695679557959E
:1009900047958F5F8630A1F787E0982F906A9695EC
:1009A000809581709CBD8DBD80E01F910F910C944E
:1009B0009302CF93C82F0E94B1048C2F80620E94B3
:1009C000AA0480932A02CF910C94A702CF93C82F38
:1009D0000E94B1048C2F0E94AA0480932A028FEFF8
:1009E0000E94AA04C82F0E94A7028C2FCF910895BD
:1009F000FF920F931F93CF93DF93C82FF62E072FED
:100A0000142F0E94B1048C2F80620E94AA0480934C
:100A10002A02CF2DD02F115020F089910E94AA04D4
:100A2000FACFDF91CF911F910F91FF900C94A70205
:100A30000E94B10480E50E94AA0480932A0283E701
:100A40000E94AA040C94A702CF93DF93D82FC62F3D
:100A50000E94B1048D2F80620E94AA0480932A0212
:100A60008C2F0E94AA04DF91CF910C94A702609171
:100A7000310261FD0AC062606093310280E00E9431
:100A800024058BE19EE40197F1F708951F920F92E0
:100A90000FB60F9211242F933F938F939F93AF9391
:100AA000BF9380911A0290911B02A0911C02B091F9
:100AB0001D023091190223E0230F2D3758F50196BE
:100AC000A11DB11D2093190280931A0290931B025D
:100AD000A0931C02B0931D0280911E0290911F02F0
:100AE000A0912002B09121020196A11DB11D809319
:100AF0001E0290931F02A0932002B0932102BF9187
:100B0000AF919F918F913F912F910F900FBE0F90BA
:100B10001F90189526E8230F0296A11DB11DD2CF74
:100B20001F920F920FB60F9211240BB60F922F93B4
:100B30003F934F935F936F937F938F939F93AF9365
:100B4000BF93EF93FF9348E251E064E271E090E0DD
:100B500080E00E94F003FF91EF91BF91AF919F91D0
:100B60008F917F916F915F914F913F912F910F9056
:100B70000BBE0F900FBE0F901F9018951F920F92F3
:100B80000FB60F9211240BB60F922F933F934F93F2
:100B90005F936F937F938F939F93AF93BF93EF93E5
:100BA000FF9348EA50E064EA70E083E090E00E943E
:100BB000F003FF91EF91BF91AF919F918F917F9142
:100BC0006F915F914F913F912F910F900BBE0F90BE
:100BD0000FBE0F901F9018951F920F920FB60F9295
:100BE00011240BB60F922F933F934F935F936F9304
:100BF0007F938F939F93AF93BF93EF93FF9348E9B6
:100C000050E064E970E082E090E00E94F003FF9120
:100C1000EF91BF91AF919F918F917F916F915F9174
:100C20004F913F912F910F900BBE0F900FBE0F90E1
:100C30001F9018951F920F920FB60F9211240BB6AA
:100C40000F922F933F934F935F936F937F938F9365
:100C50009F93AF93BF93EF93FF9348E850E064E80E
:100C600070E081E090E00E94F003FF91EF91BF916E
:100C7000AF919F918F917F916F915F914F913F9134
:100C80002F910F900BBE0F900FBE0F901F901895D5
:100C9000789484B5826084BD84B5816084BD85B557
:100CA000826085BD85B5816085BD80916E00816063
:100CB00080936E0010928100809181008260809309
:100CC000810080918100816080938100809180000B
:100CD0008160809380008091B10084608093B10036
:100CE0008091B00081608093B0008091910082601B
:100CF0008093910080919100816080939100809118
:100D000090008160809390008091A1008260809328
:100D1000A1008091A10081608093A1008091A0003A
:100D200081608093A00080912101826080932101E5
:100D30008091210181608093210180912001816057
:100D40008093200180917A00846080937A00809162
:100D50007A00826080937A0080917A00816080932B
:100D60007A0080917A00806880937A001092C100A6
:100D7000CFB7F89480911002811127C0EFEFF1E016
:100D80008491E5E4F2E09491E82FF0E0EE0FFF1F8C
:100D9000EA56FE4FA591B491EC91E92321F461E06C
:100DA00085E30E94650261E085E30E94AA028CB59A
:100DB00080618CBD8CB580648CBD61E084E30E9451
:100DC000AA0261E083E30E94AA02809110028F5F71
:100DD00080931002CFBF809124028F3F09F48FC00F
:100DE000909125029F3F09F48AC0891741F061E084
:100DF0000E94AA0261E0809125020E94AA028091CD
:100E0000240290912502891719F060E00E94650282
:100E100081E00E94930265E070E080E090E00E9433
:100E2000BE036FE584E00E94240586E00E94E6048C
:100E300045E550E060E070E040933802509339029D
:100E400060933A0270933B02682F677D86E00E94B0
:100E5000240586E00E94E6048DE10E94E604C82F86
:100E60000E9418058DE10E94E60491E0C81390E00D
:100E700090933202882341F0C81302C00E941805E3
:100E800060E08DE10E9424051092340260E08CE164
:100E90000E942405109236026FE381E00E9424052F
:100EA00063E082E00E94240580E280932B02C1E18E
:100EB00060912B028C2F0E942405CF5FC731C1F7B0
:100EC00063E083E00E94240585E0809335026CE4B2
:100ED0000E94240560E787E00E94240582EE0E94BC
:100EE000D90481EE0E94D9046CE080E00E942405C0
:100EF00080E00E94E604809331020E943705E1E71A
:100F0000F1E084914091350264E072E00E94F804BF
:100F100082E00E94E604E7E7F1E0E49161E070E03E
:100F200001C0660FEA95EAF7682B82E00E9424056B
:100F300086E00E94E604887F682F636086E00E9456
:100F400024050E943705609131026160609331028F
:100F500080E00E94240560E787E00E9424058091DC
:100F6000240290912502891719F061E00E94650220
:100F700080913302882309F4DCC0409135026CE291
:100F800072E08AE00E94F8048091D002803308F079
:100F900052C061E085E00E94AA028091D002282F11
:100FA00030E0F901EE0FFF1FE20FF31FE05CFD4F91
:100FB0009081907C956090831092D1021092D20221
:100FC0002CE0622F0E94F90A829FB001112430E0C8
:100FD00020E0AB01420F531FFA01EE0FFF1FE40F99
:100FE000F51FE05CFD4F908196FD17C02F5F3F4FCE
:100FF0002C30310571F7813009F0B0C010928000BB
:1010000082E0809381001092850010928400B19A52
:1010100080916F00826080936F00E091D0028E2FEC
:1010200090E0FC01EE0FFF1FE80FF91FE05CFD4FA1
:101030008081806480838AE590E00E948201C6E11D
:1010400061E08C2F0E94AA02CF5FCF31C9F761E027
:1010500089E00E94AA0261E088E00E94AA0261E0A1
:101060008BE00E94AA0261E08AE00E94AA0261E08D
:101070008CE00E94AA0261E08DE00E94AA0261E079
:1010800087E00E94AA0260E084E00E94AA028091A8
:101090000002909101020E94820161E08CE00E94B6
:1010A000AA0266E970E08CE00E94DB0261E08DE05C
:1010B0000E94AA026BE970E08DE00E94DB0261E011
:1010C00087E00E9465029AE5E92E92E0F92E24E17C
:1010D000C22E22E0D22E3EECA32E31E0B32E40E011
:1010E000642E40E0742E88248394912C8091170202
:1010F00090911802892B09F06CC0F7018491F601D8
:10110000C491F501D491D11155C061E089E10E94EB
:1011100065028091020290910302892B09F059C067
:1011200060E087E00E94650261E08AE10E9465025A
:1011300050C082E00E94E604E6E7F1E0E49121E09D
:1011400030E001C0220FEA95EAF72095622F68236C
:1011500082E00E9424051092330216CF823061F49F
:10116000109290008093910010929500109294003C
:1011700088BB8093710051CF833069F41092A00036
:1011800082E08093A1001092A5001092A40089BB78
:101190008093720042CF811140CF1092200182E0F3
:1011A0008093210110922501109224018ABB809323
:1011B000730033CF81110E94FE01ED2FF0E0EE0F9E
:1011C000FF1FE458FE4FA591B4918C91C82309F4F8
:1011D0009CCF87E10E94E60480FDACC0809136027E
:1011E000C0E0D1E0811106C0C0912B02DC2FC111FB
:1011F000D1E0CD1B0E94B10481E60E94AA04809335
:101200002A02DD2321F08FEF0E94AA04182FC1507B
:1012100020F08FEF0E94AA04FACF0E94A70260E498
:1012200087E00E9424051634B1F461E089E00E9451
:10123000650261E08BE00E94650260E088E00E9448
:10124000650260E08AE00E94650261E086E10E943A
:10125000650261E038C01234F9F460E089E00E9470
:10126000650260E08BE00E94650261E088E00E9418
:10127000650261E08AE00E94650260E086E10E940A
:10128000650260E087E10E94650261E088E10E94FA
:10129000650261E08EE170C01C34D1F460E089E049
:1012A0000E94650261E08BE00E94650261E088E0D7
:1012B0000E94650260E08AE00E94650261E086E1CA
:1012C0000E94650260E087E10E94650260E0DECF77
:1012D000123591F461E089E00E94650260E08BE0E4
:1012E0000E94650260E088E00E94650261E08AE099
:1012F0000E94650260E0AACF113419F561E08EE129
:101300000E94650261E08BE10E946502C0910002CB
:10131000D0910102D7FD0EC02197D0930102C09356
:1013200000026AE070E080E090E00E94BE03CE011F
:101330000E9482016114710409F4D8CE0E94000059
:10134000D5CE143489F461E08CE10E94650261E03D
:101350008EE10E946502C0910002D0910102C53B5E
:10136000D10544F72196D9CF193549F410921802C6
:101370001092170260E089E10E946502DBCF13350D
:1013800009F05CC060E089E00E94650260E08BE0EB
:101390000E94650260E088E00E94650260E08AE0E9
:1013A0000E94650260E086E10E94650260E087E1DC
:1013B0000E94650260E08EE10E9465022FB7F894FA
:1013C00080911A0290911B02A0911C02B0911D0203
:1013D0002FBF409113025091140260911502709139
:1013E00016021C012D01241A350A460A570AB201B9
:1013F000A101483C51056105710508F49BCF80931C
:10140000130290931402A0931502B09316028091D8
:10141000110290911202892B61F490921202809233
:101420001102C09111026C2F88E10E9465026C2F9D
:1014300031CF1092120210921102F3CF173509F03A
:1014400079CFC0910202D091030201E0209709F008
:1014500000E0802F90E0909303028093020261E00D
:101460008EE10E94650262E370E080E090E00E94FD
:10147000BE0361E08BE10E946502602F8AE10E9459
:10148000650261E0CD2B09F460E087E075CF8091C3
:101490000B02803308F046C091E0980F90930B0246
:1014A0008093D00290E0FC01EE0FFF1FE80FF91FC0
:1014B000E05CFD4F88EB9BE09283818382E0809328
:1014C000240283E08093250280E896E9A8E9B0E051
:1014D0008093260290932702A0932802B0932902BA
:1014E00080E280932B02109232021092330285E048
:1014F0008093350281E08093360285E090E0A0E0A1
:10150000B0E080933C0290933D02A0933E02B093E2
:101510003F028AE092E0909323028093220210928D
:101520002C0208958FEF8093D002C8CF052E97FB31
:101530001EF400940E94AD0A57FD07D00E94C80A0D
:1015400007FC03D04EF40C94AD0A509540953095AD
:1015500021953F4F4F4F5F4F08959095809570951F
:1015600061957F4F8F4F9F4F08950E94EA0AA59F74
:10157000900DB49F900DA49F800D911D112408958E
:10158000B7FF0C94B50A0E94B50A821B930B08950D
:10159000A1E21A2EAA1BBB1BFD010DC0AA1FBB1F77
:1015A000EE1FFF1FA217B307E407F50720F0A21BE9
:1015B000B30BE40BF50B661F771F881F991F1A9456
:1015C00069F760957095809590959B01AC01BD0180
:1015D000CF010895A29FB001B39FC001A39F700DDA
:1015E000811D1124911DB29F700D811D1124911D2B
:1015F0000895991B79E004C0991F961708F0961B6F
:10160000881F7A95C9F780950895EE0FFF1F881FF0
:0E1610008BBF0790F691E02D1994F894FFCF50
:0A161E005A00010030303030310076
:00000001FF
